{
  "contractName": "MetadevsContract",
  "abi": [
    {
      "inputs": [],
      "stateMutability": "nonpayable",
      "type": "constructor"
    },
    {
      "anonymous": false,
      "inputs": [
        {
          "indexed": true,
          "internalType": "address",
          "name": "owner",
          "type": "address"
        },
        {
          "indexed": true,
          "internalType": "address",
          "name": "approved",
          "type": "address"
        },
        {
          "indexed": true,
          "internalType": "uint256",
          "name": "tokenId",
          "type": "uint256"
        }
      ],
      "name": "Approval",
      "type": "event"
    },
    {
      "anonymous": false,
      "inputs": [
        {
          "indexed": true,
          "internalType": "address",
          "name": "owner",
          "type": "address"
        },
        {
          "indexed": true,
          "internalType": "address",
          "name": "operator",
          "type": "address"
        },
        {
          "indexed": false,
          "internalType": "bool",
          "name": "approved",
          "type": "bool"
        }
      ],
      "name": "ApprovalForAll",
      "type": "event"
    },
    {
      "anonymous": false,
      "inputs": [
        {
          "indexed": true,
          "internalType": "address",
          "name": "from",
          "type": "address"
        },
        {
          "indexed": true,
          "internalType": "address",
          "name": "to",
          "type": "address"
        },
        {
          "indexed": true,
          "internalType": "uint256",
          "name": "tokenId",
          "type": "uint256"
        }
      ],
      "name": "Transfer",
      "type": "event"
    },
    {
      "inputs": [
        {
          "internalType": "address",
          "name": "to",
          "type": "address"
        },
        {
          "internalType": "uint256",
          "name": "tokenId",
          "type": "uint256"
        }
      ],
      "name": "approve",
      "outputs": [],
      "stateMutability": "nonpayable",
      "type": "function"
    },
    {
      "inputs": [
        {
          "internalType": "address",
          "name": "owner",
          "type": "address"
        }
      ],
      "name": "balanceOf",
      "outputs": [
        {
          "internalType": "uint256",
          "name": "",
          "type": "uint256"
        }
      ],
      "stateMutability": "view",
      "type": "function",
      "constant": true
    },
    {
      "inputs": [
        {
          "internalType": "uint256",
          "name": "tokenId",
          "type": "uint256"
        }
      ],
      "name": "getApproved",
      "outputs": [
        {
          "internalType": "address",
          "name": "",
          "type": "address"
        }
      ],
      "stateMutability": "view",
      "type": "function",
      "constant": true
    },
    {
      "inputs": [
        {
          "internalType": "address",
          "name": "owner",
          "type": "address"
        },
        {
          "internalType": "address",
          "name": "operator",
          "type": "address"
        }
      ],
      "name": "isApprovedForAll",
      "outputs": [
        {
          "internalType": "bool",
          "name": "",
          "type": "bool"
        }
      ],
      "stateMutability": "view",
      "type": "function",
      "constant": true
    },
    {
      "inputs": [],
      "name": "name",
      "outputs": [
        {
          "internalType": "string",
          "name": "",
          "type": "string"
        }
      ],
      "stateMutability": "view",
      "type": "function",
      "constant": true
    },
    {
      "inputs": [
        {
          "internalType": "uint256",
          "name": "tokenId",
          "type": "uint256"
        }
      ],
      "name": "ownerOf",
      "outputs": [
        {
          "internalType": "address",
          "name": "",
          "type": "address"
        }
      ],
      "stateMutability": "view",
      "type": "function",
      "constant": true
    },
    {
      "inputs": [
        {
          "internalType": "address",
          "name": "from",
          "type": "address"
        },
        {
          "internalType": "address",
          "name": "to",
          "type": "address"
        },
        {
          "internalType": "uint256",
          "name": "tokenId",
          "type": "uint256"
        }
      ],
      "name": "safeTransferFrom",
      "outputs": [],
      "stateMutability": "nonpayable",
      "type": "function"
    },
    {
      "inputs": [
        {
          "internalType": "address",
          "name": "from",
          "type": "address"
        },
        {
          "internalType": "address",
          "name": "to",
          "type": "address"
        },
        {
          "internalType": "uint256",
          "name": "tokenId",
          "type": "uint256"
        },
        {
          "internalType": "bytes",
          "name": "data",
          "type": "bytes"
        }
      ],
      "name": "safeTransferFrom",
      "outputs": [],
      "stateMutability": "nonpayable",
      "type": "function"
    },
    {
      "inputs": [
        {
          "internalType": "address",
          "name": "operator",
          "type": "address"
        },
        {
          "internalType": "bool",
          "name": "approved",
          "type": "bool"
        }
      ],
      "name": "setApprovalForAll",
      "outputs": [],
      "stateMutability": "nonpayable",
      "type": "function"
    },
    {
      "inputs": [
        {
          "internalType": "bytes4",
          "name": "interfaceId",
          "type": "bytes4"
        }
      ],
      "name": "supportsInterface",
      "outputs": [
        {
          "internalType": "bool",
          "name": "",
          "type": "bool"
        }
      ],
      "stateMutability": "view",
      "type": "function",
      "constant": true
    },
    {
      "inputs": [],
      "name": "symbol",
      "outputs": [
        {
          "internalType": "string",
          "name": "",
          "type": "string"
        }
      ],
      "stateMutability": "view",
      "type": "function",
      "constant": true
    },
    {
      "inputs": [
        {
          "internalType": "uint256",
          "name": "tokenId",
          "type": "uint256"
        }
      ],
      "name": "tokenURI",
      "outputs": [
        {
          "internalType": "string",
          "name": "",
          "type": "string"
        }
      ],
      "stateMutability": "view",
      "type": "function",
      "constant": true
    },
    {
      "inputs": [
        {
          "internalType": "address",
          "name": "from",
          "type": "address"
        },
        {
          "internalType": "address",
          "name": "to",
          "type": "address"
        },
        {
          "internalType": "uint256",
          "name": "tokenId",
          "type": "uint256"
        }
      ],
      "name": "transferFrom",
      "outputs": [],
      "stateMutability": "nonpayable",
      "type": "function"
    },
    {
      "inputs": [
        {
          "internalType": "address",
          "name": "recipient",
          "type": "address"
        },
        {
          "internalType": "string",
          "name": "tokenURI",
          "type": "string"
        }
      ],
      "name": "mintNFT",
      "outputs": [
        {
          "internalType": "uint256",
          "name": "",
          "type": "uint256"
        }
      ],
      "stateMutability": "nonpayable",
      "type": "function"
    }
  ],
  "bytecode": "0x60806040523480156200001157600080fd5b506040518060400160405280600d81526020017f4d65746164657673546f6b656e000000000000000000000000000000000000008152506040518060400160405280600581526020017f4d44544b4e00000000000000000000000000000000000000000000000000000081525081600090816200008f919062000324565b508060019081620000a1919062000324565b5050506200040b565b600081519050919050565b7f4e487b7100000000000000000000000000000000000000000000000000000000600052604160045260246000fd5b7f4e487b7100000000000000000000000000000000000000000000000000000000600052602260045260246000fd5b600060028204905060018216806200012c57607f821691505b602082108103620001425762000141620000e4565b5b50919050565b60008190508160005260206000209050919050565b60006020601f8301049050919050565b600082821b905092915050565b600060088302620001ac7fffffffffffffffffffffffffffffffffffffffffffffffffffffffffffffffff826200016d565b620001b886836200016d565b95508019841693508086168417925050509392505050565b6000819050919050565b6000819050919050565b600062000205620001ff620001f984620001d0565b620001da565b620001d0565b9050919050565b6000819050919050565b6200022183620001e4565b6200023962000230826200020c565b8484546200017a565b825550505050565b600090565b6200025062000241565b6200025d81848462000216565b505050565b5b8181101562000285576200027960008262000246565b60018101905062000263565b5050565b601f821115620002d4576200029e8162000148565b620002a9846200015d565b81016020851015620002b9578190505b620002d1620002c8856200015d565b83018262000262565b50505b505050565b600082821c905092915050565b6000620002f960001984600802620002d9565b1980831691505092915050565b6000620003148383620002e6565b9150826002028217905092915050565b6200032f82620000aa565b67ffffffffffffffff8111156200034b576200034a620000b5565b5b62000357825462000113565b6200036482828562000289565b600060209050601f8311600181146200039c576000841562000387578287015190505b62000393858262000306565b86555062000403565b601f198416620003ac8662000148565b60005b82811015620003d657848901518255600182019150602085019450602081019050620003af565b86831015620003f65784890151620003f2601f891682620002e6565b8355505b6001600288020188555050505b505050505050565b612a37806200041b6000396000f3fe608060405234801561001057600080fd5b50600436106100ea5760003560e01c806370a082311161008c578063b88d4fde11610066578063b88d4fde1461025b578063c87b56dd14610277578063e985e9c5146102a7578063eacabe14146102d7576100ea565b806370a08231146101f157806395d89b4114610221578063a22cb4651461023f576100ea565b8063095ea7b3116100c8578063095ea7b31461016d57806323b872dd1461018957806342842e0e146101a55780636352211e146101c1576100ea565b806301ffc9a7146100ef57806306fdde031461011f578063081812fc1461013d575b600080fd5b610109600480360381019061010491906117b6565b610307565b60405161011691906117fe565b60405180910390f35b6101276103e9565b60405161013491906118a9565b60405180910390f35b61015760048036038101906101529190611901565b61047b565b604051610164919061196f565b60405180910390f35b610187600480360381019061018291906119b6565b6104c1565b005b6101a3600480360381019061019e91906119f6565b6105d8565b005b6101bf60048036038101906101ba91906119f6565b610638565b005b6101db60048036038101906101d69190611901565b610658565b6040516101e8919061196f565b60405180910390f35b61020b60048036038101906102069190611a49565b610709565b6040516102189190611a85565b60405180910390f35b6102296107c0565b60405161023691906118a9565b60405180910390f35b61025960048036038101906102549190611acc565b610852565b005b61027560048036038101906102709190611c41565b610868565b005b610291600480360381019061028c9190611901565b6108ca565b60405161029e91906118a9565b60405180910390f35b6102c160048036038101906102bc9190611cc4565b6109dc565b6040516102ce91906117fe565b60405180910390f35b6102f160048036038101906102ec9190611da5565b610a70565b6040516102fe9190611a85565b60405180910390f35b60007f80ac58cd000000000000000000000000000000000000000000000000000000007bffffffffffffffffffffffffffffffffffffffffffffffffffffffff1916827bffffffffffffffffffffffffffffffffffffffffffffffffffffffff191614806103d257507f5b5e139f000000000000000000000000000000000000000000000000000000007bffffffffffffffffffffffffffffffffffffffffffffffffffffffff1916827bffffffffffffffffffffffffffffffffffffffffffffffffffffffff1916145b806103e257506103e182610aa8565b5b9050919050565b6060600080546103f890611e30565b80601f016020809104026020016040519081016040528092919081815260200182805461042490611e30565b80156104715780601f1061044657610100808354040283529160200191610471565b820191906000526020600020905b81548152906001019060200180831161045457829003601f168201915b5050505050905090565b600061048682610b12565b6004600083815260200190815260200160002060009054906101000a900473ffffffffffffffffffffffffffffffffffffffff169050919050565b60006104cc82610658565b90508073ffffffffffffffffffffffffffffffffffffffff168373ffffffffffffffffffffffffffffffffffffffff160361053c576040517f08c379a000000000000000000000000000000000000000000000000000000000815260040161053390611ed3565b60405180910390fd5b8073ffffffffffffffffffffffffffffffffffffffff1661055b610b5d565b73ffffffffffffffffffffffffffffffffffffffff16148061058a575061058981610584610b5d565b6109dc565b5b6105c9576040517f08c379a00000000000000000000000000000000000000000000000000000000081526004016105c090611f65565b60405180910390fd5b6105d38383610b65565b505050565b6105e96105e3610b5d565b82610c1e565b610628576040517f08c379a000000000000000000000000000000000000000000000000000000000815260040161061f90611ff7565b60405180910390fd5b610633838383610cb3565b505050565b61065383838360405180602001604052806000815250610868565b505050565b6000806002600084815260200190815260200160002060009054906101000a900473ffffffffffffffffffffffffffffffffffffffff169050600073ffffffffffffffffffffffffffffffffffffffff168173ffffffffffffffffffffffffffffffffffffffff1603610700576040517f08c379a00000000000000000000000000000000000000000000000000000000081526004016106f790612063565b60405180910390fd5b80915050919050565b60008073ffffffffffffffffffffffffffffffffffffffff168273ffffffffffffffffffffffffffffffffffffffff1603610779576040517f08c379a0000000000000000000000000000000000000000000000000000000008152600401610770906120f5565b60405180910390fd5b600360008373ffffffffffffffffffffffffffffffffffffffff1673ffffffffffffffffffffffffffffffffffffffff168152602001908152602001600020549050919050565b6060600180546107cf90611e30565b80601f01602080910402602001604051908101604052809291908181526020018280546107fb90611e30565b80156108485780601f1061081d57610100808354040283529160200191610848565b820191906000526020600020905b81548152906001019060200180831161082b57829003601f168201915b5050505050905090565b61086461085d610b5d565b8383610f19565b5050565b610879610873610b5d565b83610c1e565b6108b8576040517f08c379a00000000000000000000000000000000000000000000000000000000081526004016108af90611ff7565b60405180910390fd5b6108c484848484611085565b50505050565b60606108d582610b12565b60006006600084815260200190815260200160002080546108f590611e30565b80601f016020809104026020016040519081016040528092919081815260200182805461092190611e30565b801561096e5780601f106109435761010080835404028352916020019161096e565b820191906000526020600020905b81548152906001019060200180831161095157829003601f168201915b50505050509050600061097f6110e1565b905060008151036109945781925050506109d7565b6000825111156109c95780826040516020016109b1929190612151565b604051602081830303815290604052925050506109d7565b6109d2846110f8565b925050505b919050565b6000600560008473ffffffffffffffffffffffffffffffffffffffff1673ffffffffffffffffffffffffffffffffffffffff16815260200190815260200160002060008373ffffffffffffffffffffffffffffffffffffffff1673ffffffffffffffffffffffffffffffffffffffff16815260200190815260200160002060009054906101000a900460ff16905092915050565b6000610a7c6007611160565b6000610a886007611176565b9050610a948482611184565b610a9e818461135d565b8091505092915050565b60007f01ffc9a7000000000000000000000000000000000000000000000000000000007bffffffffffffffffffffffffffffffffffffffffffffffffffffffff1916827bffffffffffffffffffffffffffffffffffffffffffffffffffffffff1916149050919050565b610b1b816113ca565b610b5a576040517f08c379a0000000000000000000000000000000000000000000000000000000008152600401610b5190612063565b60405180910390fd5b50565b600033905090565b816004600083815260200190815260200160002060006101000a81548173ffffffffffffffffffffffffffffffffffffffff021916908373ffffffffffffffffffffffffffffffffffffffff160217905550808273ffffffffffffffffffffffffffffffffffffffff16610bd883610658565b73ffffffffffffffffffffffffffffffffffffffff167f8c5be1e5ebec7d5bd14f71427d1e84f3dd0314c0f7b2291e5b200ac8c7c3b92560405160405180910390a45050565b600080610c2a83610658565b90508073ffffffffffffffffffffffffffffffffffffffff168473ffffffffffffffffffffffffffffffffffffffff161480610c6c5750610c6b81856109dc565b5b80610caa57508373ffffffffffffffffffffffffffffffffffffffff16610c928461047b565b73ffffffffffffffffffffffffffffffffffffffff16145b91505092915050565b8273ffffffffffffffffffffffffffffffffffffffff16610cd382610658565b73ffffffffffffffffffffffffffffffffffffffff1614610d29576040517f08c379a0000000000000000000000000000000000000000000000000000000008152600401610d20906121e7565b60405180910390fd5b600073ffffffffffffffffffffffffffffffffffffffff168273ffffffffffffffffffffffffffffffffffffffff1603610d98576040517f08c379a0000000000000000000000000000000000000000000000000000000008152600401610d8f90612279565b60405180910390fd5b610da3838383611436565b610dae600082610b65565b6001600360008573ffffffffffffffffffffffffffffffffffffffff1673ffffffffffffffffffffffffffffffffffffffff1681526020019081526020016000206000828254610dfe91906122c8565b925050819055506001600360008473ffffffffffffffffffffffffffffffffffffffff1673ffffffffffffffffffffffffffffffffffffffff1681526020019081526020016000206000828254610e5591906122fc565b92505081905550816002600083815260200190815260200160002060006101000a81548173ffffffffffffffffffffffffffffffffffffffff021916908373ffffffffffffffffffffffffffffffffffffffff160217905550808273ffffffffffffffffffffffffffffffffffffffff168473ffffffffffffffffffffffffffffffffffffffff167fddf252ad1be2c89b69c2b068fc378daa952ba7f163c4a11628f55a4df523b3ef60405160405180910390a4610f1483838361143b565b505050565b8173ffffffffffffffffffffffffffffffffffffffff168373ffffffffffffffffffffffffffffffffffffffff1603610f87576040517f08c379a0000000000000000000000000000000000000000000000000000000008152600401610f7e9061237c565b60405180910390fd5b80600560008573ffffffffffffffffffffffffffffffffffffffff1673ffffffffffffffffffffffffffffffffffffffff16815260200190815260200160002060008473ffffffffffffffffffffffffffffffffffffffff1673ffffffffffffffffffffffffffffffffffffffff16815260200190815260200160002060006101000a81548160ff0219169083151502179055508173ffffffffffffffffffffffffffffffffffffffff168373ffffffffffffffffffffffffffffffffffffffff167f17307eab39ab6107e8899845ad3d59bd9653f200f220920489ca2b5937696c318360405161107891906117fe565b60405180910390a3505050565b611090848484610cb3565b61109c84848484611440565b6110db576040517f08c379a00000000000000000000000000000000000000000000000000000000081526004016110d29061240e565b60405180910390fd5b50505050565b606060405180602001604052806000815250905090565b606061110382610b12565b600061110d6110e1565b9050600081511161112d5760405180602001604052806000815250611158565b80611137846115c7565b604051602001611148929190612151565b6040516020818303038152906040525b915050919050565b6001816000016000828254019250508190555050565b600081600001549050919050565b600073ffffffffffffffffffffffffffffffffffffffff168273ffffffffffffffffffffffffffffffffffffffff16036111f3576040517f08c379a00000000000000000000000000000000000000000000000000000000081526004016111ea9061247a565b60405180910390fd5b6111fc816113ca565b1561123c576040517f08c379a0000000000000000000000000000000000000000000000000000000008152600401611233906124e6565b60405180910390fd5b61124860008383611436565b6001600360008473ffffffffffffffffffffffffffffffffffffffff1673ffffffffffffffffffffffffffffffffffffffff168152602001908152602001600020600082825461129891906122fc565b92505081905550816002600083815260200190815260200160002060006101000a81548173ffffffffffffffffffffffffffffffffffffffff021916908373ffffffffffffffffffffffffffffffffffffffff160217905550808273ffffffffffffffffffffffffffffffffffffffff16600073ffffffffffffffffffffffffffffffffffffffff167fddf252ad1be2c89b69c2b068fc378daa952ba7f163c4a11628f55a4df523b3ef60405160405180910390a46113596000838361143b565b5050565b611366826113ca565b6113a5576040517f08c379a000000000000000000000000000000000000000000000000000000000815260040161139c90612578565b60405180910390fd5b806006600084815260200190815260200160002090816113c59190612744565b505050565b60008073ffffffffffffffffffffffffffffffffffffffff166002600084815260200190815260200160002060009054906101000a900473ffffffffffffffffffffffffffffffffffffffff1673ffffffffffffffffffffffffffffffffffffffff1614159050919050565b505050565b505050565b60006114618473ffffffffffffffffffffffffffffffffffffffff16611727565b156115ba578373ffffffffffffffffffffffffffffffffffffffff1663150b7a0261148a610b5d565b8786866040518563ffffffff1660e01b81526004016114ac949392919061286b565b6020604051808303816000875af19250505080156114e857506040513d601f19601f820116820180604052508101906114e591906128cc565b60015b61156a573d8060008114611518576040519150601f19603f3d011682016040523d82523d6000602084013e61151d565b606091505b506000815103611562576040517f08c379a00000000000000000000000000000000000000000000000000000000081526004016115599061240e565b60405180910390fd5b805181602001fd5b63150b7a0260e01b7bffffffffffffffffffffffffffffffffffffffffffffffffffffffff1916817bffffffffffffffffffffffffffffffffffffffffffffffffffffffff1916149150506115bf565b600190505b949350505050565b60606000820361160e576040518060400160405280600181526020017f30000000000000000000000000000000000000000000000000000000000000008152509050611722565b600082905060005b60008214611640578080611629906128f9565b915050600a826116399190612970565b9150611616565b60008167ffffffffffffffff81111561165c5761165b611b16565b5b6040519080825280601f01601f19166020018201604052801561168e5781602001600182028036833780820191505090505b5090505b6000851461171b576001826116a791906122c8565b9150600a856116b691906129a1565b60306116c291906122fc565b60f81b8183815181106116d8576116d76129d2565b5b60200101907effffffffffffffffffffffffffffffffffffffffffffffffffffffffffffff1916908160001a905350600a856117149190612970565b9450611692565b8093505050505b919050565b6000808273ffffffffffffffffffffffffffffffffffffffff163b119050919050565b6000604051905090565b600080fd5b600080fd5b60007fffffffff0000000000000000000000000000000000000000000000000000000082169050919050565b6117938161175e565b811461179e57600080fd5b50565b6000813590506117b08161178a565b92915050565b6000602082840312156117cc576117cb611754565b5b60006117da848285016117a1565b91505092915050565b60008115159050919050565b6117f8816117e3565b82525050565b600060208201905061181360008301846117ef565b92915050565b600081519050919050565b600082825260208201905092915050565b60005b83811015611853578082015181840152602081019050611838565b60008484015250505050565b6000601f19601f8301169050919050565b600061187b82611819565b6118858185611824565b9350611895818560208601611835565b61189e8161185f565b840191505092915050565b600060208201905081810360008301526118c38184611870565b905092915050565b6000819050919050565b6118de816118cb565b81146118e957600080fd5b50565b6000813590506118fb816118d5565b92915050565b60006020828403121561191757611916611754565b5b6000611925848285016118ec565b91505092915050565b600073ffffffffffffffffffffffffffffffffffffffff82169050919050565b60006119598261192e565b9050919050565b6119698161194e565b82525050565b60006020820190506119846000830184611960565b92915050565b6119938161194e565b811461199e57600080fd5b50565b6000813590506119b08161198a565b92915050565b600080604083850312156119cd576119cc611754565b5b60006119db858286016119a1565b92505060206119ec858286016118ec565b9150509250929050565b600080600060608486031215611a0f57611a0e611754565b5b6000611a1d868287016119a1565b9350506020611a2e868287016119a1565b9250506040611a3f868287016118ec565b9150509250925092565b600060208284031215611a5f57611a5e611754565b5b6000611a6d848285016119a1565b91505092915050565b611a7f816118cb565b82525050565b6000602082019050611a9a6000830184611a76565b92915050565b611aa9816117e3565b8114611ab457600080fd5b50565b600081359050611ac681611aa0565b92915050565b60008060408385031215611ae357611ae2611754565b5b6000611af1858286016119a1565b9250506020611b0285828601611ab7565b9150509250929050565b600080fd5b600080fd5b7f4e487b7100000000000000000000000000000000000000000000000000000000600052604160045260246000fd5b611b4e8261185f565b810181811067ffffffffffffffff82111715611b6d57611b6c611b16565b5b80604052505050565b6000611b8061174a565b9050611b8c8282611b45565b919050565b600067ffffffffffffffff821115611bac57611bab611b16565b5b611bb58261185f565b9050602081019050919050565b82818337600083830152505050565b6000611be4611bdf84611b91565b611b76565b905082815260208101848484011115611c0057611bff611b11565b5b611c0b848285611bc2565b509392505050565b600082601f830112611c2857611c27611b0c565b5b8135611c38848260208601611bd1565b91505092915050565b60008060008060808587031215611c5b57611c5a611754565b5b6000611c69878288016119a1565b9450506020611c7a878288016119a1565b9350506040611c8b878288016118ec565b925050606085013567ffffffffffffffff811115611cac57611cab611759565b5b611cb887828801611c13565b91505092959194509250565b60008060408385031215611cdb57611cda611754565b5b6000611ce9858286016119a1565b9250506020611cfa858286016119a1565b9150509250929050565b600067ffffffffffffffff821115611d1f57611d1e611b16565b5b611d288261185f565b9050602081019050919050565b6000611d48611d4384611d04565b611b76565b905082815260208101848484011115611d6457611d63611b11565b5b611d6f848285611bc2565b509392505050565b600082601f830112611d8c57611d8b611b0c565b5b8135611d9c848260208601611d35565b91505092915050565b60008060408385031215611dbc57611dbb611754565b5b6000611dca858286016119a1565b925050602083013567ffffffffffffffff811115611deb57611dea611759565b5b611df785828601611d77565b9150509250929050565b7f4e487b7100000000000000000000000000000000000000000000000000000000600052602260045260246000fd5b60006002820490506001821680611e4857607f821691505b602082108103611e5b57611e5a611e01565b5b50919050565b7f4552433732313a20617070726f76616c20746f2063757272656e74206f776e6560008201527f7200000000000000000000000000000000000000000000000000000000000000602082015250565b6000611ebd602183611824565b9150611ec882611e61565b604082019050919050565b60006020820190508181036000830152611eec81611eb0565b9050919050565b7f4552433732313a20617070726f76652063616c6c6572206973206e6f7420746f60008201527f6b656e206f776e6572206e6f7220617070726f76656420666f7220616c6c0000602082015250565b6000611f4f603e83611824565b9150611f5a82611ef3565b604082019050919050565b60006020820190508181036000830152611f7e81611f42565b9050919050565b7f4552433732313a2063616c6c6572206973206e6f7420746f6b656e206f776e6560008201527f72206e6f7220617070726f766564000000000000000000000000000000000000602082015250565b6000611fe1602e83611824565b9150611fec82611f85565b604082019050919050565b6000602082019050818103600083015261201081611fd4565b9050919050565b7f4552433732313a20696e76616c696420746f6b656e2049440000000000000000600082015250565b600061204d601883611824565b915061205882612017565b602082019050919050565b6000602082019050818103600083015261207c81612040565b9050919050565b7f4552433732313a2061646472657373207a65726f206973206e6f74206120766160008201527f6c6964206f776e65720000000000000000000000000000000000000000000000602082015250565b60006120df602983611824565b91506120ea82612083565b604082019050919050565b6000602082019050818103600083015261210e816120d2565b9050919050565b600081905092915050565b600061212b82611819565b6121358185612115565b9350612145818560208601611835565b80840191505092915050565b600061215d8285612120565b91506121698284612120565b91508190509392505050565b7f4552433732313a207472616e736665722066726f6d20696e636f72726563742060008201527f6f776e6572000000000000000000000000000000000000000000000000000000602082015250565b60006121d1602583611824565b91506121dc82612175565b604082019050919050565b60006020820190508181036000830152612200816121c4565b9050919050565b7f4552433732313a207472616e7366657220746f20746865207a65726f2061646460008201527f7265737300000000000000000000000000000000000000000000000000000000602082015250565b6000612263602483611824565b915061226e82612207565b604082019050919050565b6000602082019050818103600083015261229281612256565b9050919050565b7f4e487b7100000000000000000000000000000000000000000000000000000000600052601160045260246000fd5b60006122d3826118cb565b91506122de836118cb565b92508282039050818111156122f6576122f5612299565b5b92915050565b6000612307826118cb565b9150612312836118cb565b925082820190508082111561232a57612329612299565b5b92915050565b7f4552433732313a20617070726f766520746f2063616c6c657200000000000000600082015250565b6000612366601983611824565b915061237182612330565b602082019050919050565b6000602082019050818103600083015261239581612359565b9050919050565b7f4552433732313a207472616e7366657220746f206e6f6e20455243373231526560008201527f63656976657220696d706c656d656e7465720000000000000000000000000000602082015250565b60006123f8603283611824565b91506124038261239c565b604082019050919050565b60006020820190508181036000830152612427816123eb565b9050919050565b7f4552433732313a206d696e7420746f20746865207a65726f2061646472657373600082015250565b6000612464602083611824565b915061246f8261242e565b602082019050919050565b6000602082019050818103600083015261249381612457565b9050919050565b7f4552433732313a20746f6b656e20616c7265616479206d696e74656400000000600082015250565b60006124d0601c83611824565b91506124db8261249a565b602082019050919050565b600060208201905081810360008301526124ff816124c3565b9050919050565b7f45524337323155524953746f726167653a2055524920736574206f66206e6f6e60008201527f6578697374656e7420746f6b656e000000000000000000000000000000000000602082015250565b6000612562602e83611824565b915061256d82612506565b604082019050919050565b6000602082019050818103600083015261259181612555565b9050919050565b60008190508160005260206000209050919050565b60006020601f8301049050919050565b600082821b905092915050565b6000600883026125fa7fffffffffffffffffffffffffffffffffffffffffffffffffffffffffffffffff826125bd565b61260486836125bd565b95508019841693508086168417925050509392505050565b6000819050919050565b600061264161263c612637846118cb565b61261c565b6118cb565b9050919050565b6000819050919050565b61265b83612626565b61266f61266782612648565b8484546125ca565b825550505050565b600090565b612684612677565b61268f818484612652565b505050565b5b818110156126b3576126a860008261267c565b600181019050612695565b5050565b601f8211156126f8576126c981612598565b6126d2846125ad565b810160208510156126e1578190505b6126f56126ed856125ad565b830182612694565b50505b505050565b600082821c905092915050565b600061271b600019846008026126fd565b1980831691505092915050565b6000612734838361270a565b9150826002028217905092915050565b61274d82611819565b67ffffffffffffffff81111561276657612765611b16565b5b6127708254611e30565b61277b8282856126b7565b600060209050601f8311600181146127ae576000841561279c578287015190505b6127a68582612728565b86555061280e565b601f1984166127bc86612598565b60005b828110156127e4578489015182556001820191506020850194506020810190506127bf565b8683101561280157848901516127fd601f89168261270a565b8355505b6001600288020188555050505b505050505050565b600081519050919050565b600082825260208201905092915050565b600061283d82612816565b6128478185612821565b9350612857818560208601611835565b6128608161185f565b840191505092915050565b60006080820190506128806000830187611960565b61288d6020830186611960565b61289a6040830185611a76565b81810360608301526128ac8184612832565b905095945050505050565b6000815190506128c68161178a565b92915050565b6000602082840312156128e2576128e1611754565b5b60006128f0848285016128b7565b91505092915050565b6000612904826118cb565b91507fffffffffffffffffffffffffffffffffffffffffffffffffffffffffffffffff820361293657612935612299565b5b600182019050919050565b7f4e487b7100000000000000000000000000000000000000000000000000000000600052601260045260246000fd5b600061297b826118cb565b9150612986836118cb565b92508261299657612995612941565b5b828204905092915050565b60006129ac826118cb565b91506129b7836118cb565b9250826129c7576129c6612941565b5b828206905092915050565b7f4e487b7100000000000000000000000000000000000000000000000000000000600052603260045260246000fdfea264697066735822122025e8f66640fbbc687ed76758a485ce2d05ba18b437ca999dace1c7fa96dec0b864736f6c63430008110033",
  "immutableReferences": {},
  "source": "//Contract based on https://docs.openzeppelin.com/contracts/3.x/erc721\n// SPDX-License-Identifier: MIT\npragma solidity ^0.8.0;\n\nimport \"@openzeppelin/contracts/token/ERC721/extensions/ERC721URIStorage.sol\";\nimport \"@openzeppelin/contracts/utils/Counters.sol\";\n\ncontract MetadevsContract is ERC721URIStorage {\n    using Counters for Counters.Counter;\n    Counters.Counter private _tokenIds;\n\n    constructor() ERC721(\"MetadevsToken\", \"MDTKN\") {}\n\n    function mintNFT(address recipient, string memory tokenURI)\n        public\n        returns (uint256)\n    {\n        _tokenIds.increment();\n\n        uint256 newItemId = _tokenIds.current();\n        _mint(recipient, newItemId);\n        _setTokenURI(newItemId, tokenURI);\n\n        return newItemId;\n    }\n}\n",
  "sourcePath": "D:\\Cripto Projects\\NFT Minter\\src\\contracts\\MetadevsContract.sol",
  "compiler": {
    "name": "solc",
    "version": "0.8.17+commit.8df45f5f.Emscripten.clang"
  },
  "schemaVersion": "3.4.10",
  "updatedAt": "2022-09-23T02:12:58.129Z",
  "networkType": "ethereum",
  "devdoc": {
    "kind": "dev",
    "methods": {
      "approve(address,uint256)": {
        "details": "See {IERC721-approve}."
      },
      "balanceOf(address)": {
        "details": "See {IERC721-balanceOf}."
      },
      "getApproved(uint256)": {
        "details": "See {IERC721-getApproved}."
      },
      "isApprovedForAll(address,address)": {
        "details": "See {IERC721-isApprovedForAll}."
      },
      "name()": {
        "details": "See {IERC721Metadata-name}."
      },
      "ownerOf(uint256)": {
        "details": "See {IERC721-ownerOf}."
      },
      "safeTransferFrom(address,address,uint256)": {
        "details": "See {IERC721-safeTransferFrom}."
      },
      "safeTransferFrom(address,address,uint256,bytes)": {
        "details": "See {IERC721-safeTransferFrom}."
      },
      "setApprovalForAll(address,bool)": {
        "details": "See {IERC721-setApprovalForAll}."
      },
      "supportsInterface(bytes4)": {
        "details": "See {IERC165-supportsInterface}."
      },
      "symbol()": {
        "details": "See {IERC721Metadata-symbol}."
      },
      "tokenURI(uint256)": {
        "details": "See {IERC721Metadata-tokenURI}."
      },
      "transferFrom(address,address,uint256)": {
        "details": "See {IERC721-transferFrom}."
      }
    },
    "version": 1
  },
  "userdoc": {
    "kind": "user",
    "methods": {},
    "version": 1
  }
}